{
  "_format": "hh-sol-artifact-1",
  "contractName": "LandRegistry",
  "sourceName": "contracts/LandRegistry.sol",
  "abi": [
    {
      "inputs": [
        {
          "internalType": "address",
          "name": "_landNFTAddress",
          "type": "address"
        },
        {
          "internalType": "address",
          "name": "_taxEscrowAddress",
          "type": "address"
        }
      ],
      "stateMutability": "nonpayable",
      "type": "constructor"
    },
    {
      "inputs": [],
      "name": "InvalidAddress",
      "type": "error"
    },
    {
      "inputs": [],
      "name": "NoOwnershipHistory",
      "type": "error"
    },
    {
      "inputs": [
        {
          "internalType": "address",
          "name": "owner",
          "type": "address"
        }
      ],
      "name": "OwnableInvalidOwner",
      "type": "error"
    },
    {
      "inputs": [
        {
          "internalType": "address",
          "name": "account",
          "type": "address"
        }
      ],
      "name": "OwnableUnauthorizedAccount",
      "type": "error"
    },
    {
      "inputs": [],
      "name": "Unauthorized",
      "type": "error"
    },
    {
      "inputs": [],
      "name": "UserAlreadyVerified",
      "type": "error"
    },
    {
      "inputs": [],
      "name": "UserNotVerified",
      "type": "error"
    },
    {
      "anonymous": false,
      "inputs": [
        {
          "indexed": true,
          "internalType": "uint256",
          "name": "tokenId",
          "type": "uint256"
        },
        {
          "indexed": true,
          "internalType": "address",
          "name": "owner",
          "type": "address"
        },
        {
          "indexed": false,
          "internalType": "uint256",
          "name": "timestamp",
          "type": "uint256"
        }
      ],
      "name": "OwnershipRecorded",
      "type": "event"
    },
    {
      "anonymous": false,
      "inputs": [
        {
          "indexed": true,
          "internalType": "address",
          "name": "previousOwner",
          "type": "address"
        },
        {
          "indexed": true,
          "internalType": "address",
          "name": "newOwner",
          "type": "address"
        }
      ],
      "name": "OwnershipTransferred",
      "type": "event"
    },
    {
      "anonymous": false,
      "inputs": [
        {
          "indexed": true,
          "internalType": "address",
          "name": "user",
          "type": "address"
        }
      ],
      "name": "UserRevoked",
      "type": "event"
    },
    {
      "anonymous": false,
      "inputs": [
        {
          "indexed": true,
          "internalType": "address",
          "name": "user",
          "type": "address"
        }
      ],
      "name": "UserVerified",
      "type": "event"
    },
    {
      "inputs": [
        {
          "internalType": "address[]",
          "name": "users",
          "type": "address[]"
        }
      ],
      "name": "batchVerifyUsers",
      "outputs": [],
      "stateMutability": "nonpayable",
      "type": "function"
    },
    {
      "inputs": [
        {
          "internalType": "uint256",
          "name": "tokenId",
          "type": "uint256"
        }
      ],
      "name": "getLatestOwner",
      "outputs": [
        {
          "internalType": "address",
          "name": "",
          "type": "address"
        }
      ],
      "stateMutability": "view",
      "type": "function"
    },
    {
      "inputs": [
        {
          "internalType": "uint256",
          "name": "tokenId",
          "type": "uint256"
        }
      ],
      "name": "getOwnershipCount",
      "outputs": [
        {
          "internalType": "uint256",
          "name": "",
          "type": "uint256"
        }
      ],
      "stateMutability": "view",
      "type": "function"
    },
    {
      "inputs": [
        {
          "internalType": "uint256",
          "name": "tokenId",
          "type": "uint256"
        }
      ],
      "name": "getOwnershipHistory",
      "outputs": [
        {
          "components": [
            {
              "internalType": "address",
              "name": "owner",
              "type": "address"
            },
            {
              "internalType": "uint256",
              "name": "timestamp",
              "type": "uint256"
            },
            {
              "internalType": "uint256",
              "name": "transferRequestId",
              "type": "uint256"
            }
          ],
          "internalType": "struct LandRegistry.OwnershipRecord[]",
          "name": "",
          "type": "tuple[]"
        }
      ],
      "stateMutability": "view",
      "type": "function"
    },
    {
      "inputs": [],
      "name": "landNFT",
      "outputs": [
        {
          "internalType": "contract LandNFT",
          "name": "",
          "type": "address"
        }
      ],
      "stateMutability": "view",
      "type": "function"
    },
    {
      "inputs": [],
      "name": "owner",
      "outputs": [
        {
          "internalType": "address",
          "name": "",
          "type": "address"
        }
      ],
      "stateMutability": "view",
      "type": "function"
    },
    {
      "inputs": [
        {
          "internalType": "uint256",
          "name": "",
          "type": "uint256"
        },
        {
          "internalType": "uint256",
          "name": "",
          "type": "uint256"
        }
      ],
      "name": "ownershipHistory",
      "outputs": [
        {
          "internalType": "address",
          "name": "owner",
          "type": "address"
        },
        {
          "internalType": "uint256",
          "name": "timestamp",
          "type": "uint256"
        },
        {
          "internalType": "uint256",
          "name": "transferRequestId",
          "type": "uint256"
        }
      ],
      "stateMutability": "view",
      "type": "function"
    },
    {
      "inputs": [
        {
          "internalType": "uint256",
          "name": "tokenId",
          "type": "uint256"
        },
        {
          "internalType": "address",
          "name": "newOwner",
          "type": "address"
        },
        {
          "internalType": "uint256",
          "name": "transferRequestId",
          "type": "uint256"
        }
      ],
      "name": "recordOwnership",
      "outputs": [],
      "stateMutability": "nonpayable",
      "type": "function"
    },
    {
      "inputs": [],
      "name": "renounceOwnership",
      "outputs": [],
      "stateMutability": "nonpayable",
      "type": "function"
    },
    {
      "inputs": [
        {
          "internalType": "address",
          "name": "user",
          "type": "address"
        }
      ],
      "name": "revokeUser",
      "outputs": [],
      "stateMutability": "nonpayable",
      "type": "function"
    },
    {
      "inputs": [],
      "name": "taxEscrow",
      "outputs": [
        {
          "internalType": "contract TaxEscrow",
          "name": "",
          "type": "address"
        }
      ],
      "stateMutability": "view",
      "type": "function"
    },
    {
      "inputs": [
        {
          "internalType": "address",
          "name": "newOwner",
          "type": "address"
        }
      ],
      "name": "transferOwnership",
      "outputs": [],
      "stateMutability": "nonpayable",
      "type": "function"
    },
    {
      "inputs": [
        {
          "internalType": "address",
          "name": "_landNFTAddress",
          "type": "address"
        }
      ],
      "name": "updateLandNFT",
      "outputs": [],
      "stateMutability": "nonpayable",
      "type": "function"
    },
    {
      "inputs": [
        {
          "internalType": "address",
          "name": "_taxEscrowAddress",
          "type": "address"
        }
      ],
      "name": "updateTaxEscrow",
      "outputs": [],
      "stateMutability": "nonpayable",
      "type": "function"
    },
    {
      "inputs": [
        {
          "internalType": "address",
          "name": "",
          "type": "address"
        }
      ],
      "name": "verifiedUsers",
      "outputs": [
        {
          "internalType": "bool",
          "name": "",
          "type": "bool"
        }
      ],
      "stateMutability": "view",
      "type": "function"
    },
    {
      "inputs": [
        {
          "internalType": "address",
          "name": "user",
          "type": "address"
        }
      ],
      "name": "verifyUser",
      "outputs": [],
      "stateMutability": "nonpayable",
      "type": "function"
    }
  ],
  "bytecode": "0x608060405234801561001057600080fd5b50604051610c42380380610c4283398101604081905261002f9161014a565b338061005557604051631e4fbdf760e01b81526000600482015260240160405180910390fd5b61005e816100de565b506001600160a01b0382166100865760405163e6c4247b60e01b815260040160405180910390fd5b6001600160a01b0381166100ad5760405163e6c4247b60e01b815260040160405180910390fd5b600180546001600160a01b039384166001600160a01b0319918216179091556002805492909316911617905561017d565b600080546001600160a01b038381166001600160a01b0319831681178455604051919092169283917f8be0079c531659141344cd1fd0a4f28419497f9722a3daafe3b4186f6b6457e09190a35050565b80516001600160a01b038116811461014557600080fd5b919050565b6000806040838503121561015d57600080fd5b6101668361012e565b91506101746020840161012e565b90509250929050565b610ab68061018c6000396000f3fe608060405234801561001057600080fd5b50600436106101005760003560e01c8063a629fd4b11610097578063ef097fc411610066578063ef097fc41461025b578063f1dbaccb1461026e578063f2fde38b1461028e578063f48f97db146102a157600080fd5b8063a629fd4b146101ca578063b5a65818146101dd578063c9cf2adc146101f0578063e35fe3661461022857600080fd5b80636931e392116100d35780636931e3921461018b578063715018a61461019e5780638da5cb5b146101a657806392dcad65146101b757600080fd5b80631521cc911461010557806339d022e1146101385780634d81312014610163578063538099a514610178575b600080fd5b6101256101133660046108be565b60009081526003602052604090205490565b6040519081526020015b60405180910390f35b60015461014b906001600160a01b031681565b6040516001600160a01b03909116815260200161012f565b6101766101713660046108f3565b6102b4565b005b61014b6101863660046108be565b610369565b610176610199366004610915565b6103e2565b6101766104b0565b6000546001600160a01b031661014b565b6101766101c536600461098a565b6104c4565b60025461014b906001600160a01b031681565b6101766101eb3660046108f3565b6105f1565b6102036101fe3660046109bf565b610642565b604080516001600160a01b03909416845260208401929092529082015260600161012f565b61024b6102363660046108f3565b60046020526000908152604090205460ff1681565b604051901515815260200161012f565b6101766102693660046108f3565b61068e565b61028161027c3660046108be565b610718565b60405161012f91906109e1565b61017661029c3660046108f3565b6107ad565b6101766102af3660046108f3565b6107f0565b6102bc610841565b6001600160a01b0381166102e35760405163e6c4247b60e01b815260040160405180910390fd5b6001600160a01b03811660009081526004602052604090205460ff161561031d5760405163b09164f760e01b815260040160405180910390fd5b6001600160a01b038116600081815260046020526040808220805460ff19166001179055517fa6625d2d26e786e2f473111bea4b2fcdbbf1863d883a2359989ce3a103d2972a9190a250565b60008181526003602052604081205480820361039857604051637a6405f560e01b815260040160405180910390fd5b60008381526003602052604090206103b1600183610a43565b815481106103c1576103c1610a6a565b60009182526020909120600390910201546001600160a01b03169392505050565b6103ea610841565b8060005b818110156104aa57600084848381811061040a5761040a610a6a565b905060200201602081019061041f91906108f3565b90506001600160a01b0381161580159061045257506001600160a01b03811660009081526004602052604090205460ff16155b156104a1576001600160a01b038116600081815260046020526040808220805460ff19166001179055517fa6625d2d26e786e2f473111bea4b2fcdbbf1863d883a2359989ce3a103d2972a9190a25b506001016103ee565b50505050565b6104b8610841565b6104c2600061086e565b565b6001546001600160a01b031633148015906104ea57506002546001600160a01b03163314155b801561050157506000546001600160a01b03163314155b1561051e576040516282b42960e81b815260040160405180910390fd5b6001600160a01b0382166105455760405163e6c4247b60e01b815260040160405180910390fd5b600083815260036020818152604080842081516060810183526001600160a01b03888116808352428387018181528487018b8152865460018082018955978c529a89902095519a90990290940180546001600160a01b03191699909316989098178255915192810192909255935160029091015551928352909185917fae05f0548cf4d70f28513f748d0189c8b340886d01cbe5ecd8c458d96100e6e8910160405180910390a3505050565b6105f9610841565b6001600160a01b0381166106205760405163e6c4247b60e01b815260040160405180910390fd5b600180546001600160a01b0319166001600160a01b0392909216919091179055565b6003602052816000526040600020818154811061065e57600080fd5b60009182526020909120600390910201805460018201546002909201546001600160a01b03909116935090915083565b610696610841565b6001600160a01b03811660009081526004602052604090205460ff166106cf57604051637d93d32b60e01b815260040160405180910390fd5b6001600160a01b038116600081815260046020526040808220805460ff19169055517fb43ac7bf01d16ebcb8c868a4c03fecb1f6984ea4fa1a52c116ef282b8dbb17c59190a250565b606060036000838152602001908152602001600020805480602002602001604051908101604052809291908181526020016000905b828210156107a2576000848152602090819020604080516060810182526003860290920180546001600160a01b031683526001808201548486015260029091015491830191909152908352909201910161074d565b505050509050919050565b6107b5610841565b6001600160a01b0381166107e457604051631e4fbdf760e01b8152600060048201526024015b60405180910390fd5b6107ed8161086e565b50565b6107f8610841565b6001600160a01b03811661081f5760405163e6c4247b60e01b815260040160405180910390fd5b600280546001600160a01b0319166001600160a01b0392909216919091179055565b6000546001600160a01b031633146104c25760405163118cdaa760e01b81523360048201526024016107db565b600080546001600160a01b038381166001600160a01b0319831681178455604051919092169283917f8be0079c531659141344cd1fd0a4f28419497f9722a3daafe3b4186f6b6457e09190a35050565b6000602082840312156108d057600080fd5b5035919050565b80356001600160a01b03811681146108ee57600080fd5b919050565b60006020828403121561090557600080fd5b61090e826108d7565b9392505050565b6000806020838503121561092857600080fd5b823567ffffffffffffffff8082111561094057600080fd5b818501915085601f83011261095457600080fd5b81358181111561096357600080fd5b8660208260051b850101111561097857600080fd5b60209290920196919550909350505050565b60008060006060848603121561099f57600080fd5b833592506109af602085016108d7565b9150604084013590509250925092565b600080604083850312156109d257600080fd5b50508035926020909101359150565b602080825282518282018190526000919060409081850190868401855b82811015610a3657815180516001600160a01b03168552868101518786015285015185850152606090930192908501906001016109fe565b5091979650505050505050565b81810381811115610a6457634e487b7160e01b600052601160045260246000fd5b92915050565b634e487b7160e01b600052603260045260246000fdfea264697066735822122076819f967e2a156d099f23e9e1458b31461b4f403136722c6589c3e7f492d2d064736f6c63430008140033",
  "linkReferences": {},
  "deployedLinkReferences": {}
}