{
  "_format": "hh-sol-artifact-1",
  "contractName": "LandNFT",
  "sourceName": "contracts/LandNFT.sol",
  "abi": [
    {
      "inputs": [],
      "stateMutability": "nonpayable",
      "type": "constructor"
    },
    {
      "inputs": [
        {
          "internalType": "address",
          "name": "sender",
          "type": "address"
        },
        {
          "internalType": "uint256",
          "name": "tokenId",
          "type": "uint256"
        },
        {
          "internalType": "address",
          "name": "owner",
          "type": "address"
        }
      ],
      "name": "ERC721IncorrectOwner",
      "type": "error"
    },
    {
      "inputs": [
        {
          "internalType": "address",
          "name": "operator",
          "type": "address"
        },
        {
          "internalType": "uint256",
          "name": "tokenId",
          "type": "uint256"
        }
      ],
      "name": "ERC721InsufficientApproval",
      "type": "error"
    },
    {
      "inputs": [
        {
          "internalType": "address",
          "name": "approver",
          "type": "address"
        }
      ],
      "name": "ERC721InvalidApprover",
      "type": "error"
    },
    {
      "inputs": [
        {
          "internalType": "address",
          "name": "operator",
          "type": "address"
        }
      ],
      "name": "ERC721InvalidOperator",
      "type": "error"
    },
    {
      "inputs": [
        {
          "internalType": "address",
          "name": "owner",
          "type": "address"
        }
      ],
      "name": "ERC721InvalidOwner",
      "type": "error"
    },
    {
      "inputs": [
        {
          "internalType": "address",
          "name": "receiver",
          "type": "address"
        }
      ],
      "name": "ERC721InvalidReceiver",
      "type": "error"
    },
    {
      "inputs": [
        {
          "internalType": "address",
          "name": "sender",
          "type": "address"
        }
      ],
      "name": "ERC721InvalidSender",
      "type": "error"
    },
    {
      "inputs": [
        {
          "internalType": "uint256",
          "name": "tokenId",
          "type": "uint256"
        }
      ],
      "name": "ERC721NonexistentToken",
      "type": "error"
    },
    {
      "inputs": [
        {
          "internalType": "address",
          "name": "owner",
          "type": "address"
        }
      ],
      "name": "OwnableInvalidOwner",
      "type": "error"
    },
    {
      "inputs": [
        {
          "internalType": "address",
          "name": "account",
          "type": "address"
        }
      ],
      "name": "OwnableUnauthorizedAccount",
      "type": "error"
    },
    {
      "anonymous": false,
      "inputs": [
        {
          "indexed": true,
          "internalType": "address",
          "name": "owner",
          "type": "address"
        },
        {
          "indexed": true,
          "internalType": "address",
          "name": "approved",
          "type": "address"
        },
        {
          "indexed": true,
          "internalType": "uint256",
          "name": "tokenId",
          "type": "uint256"
        }
      ],
      "name": "Approval",
      "type": "event"
    },
    {
      "anonymous": false,
      "inputs": [
        {
          "indexed": true,
          "internalType": "address",
          "name": "owner",
          "type": "address"
        },
        {
          "indexed": true,
          "internalType": "address",
          "name": "operator",
          "type": "address"
        },
        {
          "indexed": false,
          "internalType": "bool",
          "name": "approved",
          "type": "bool"
        }
      ],
      "name": "ApprovalForAll",
      "type": "event"
    },
    {
      "anonymous": false,
      "inputs": [
        {
          "indexed": false,
          "internalType": "uint256",
          "name": "_fromTokenId",
          "type": "uint256"
        },
        {
          "indexed": false,
          "internalType": "uint256",
          "name": "_toTokenId",
          "type": "uint256"
        }
      ],
      "name": "BatchMetadataUpdate",
      "type": "event"
    },
    {
      "anonymous": false,
      "inputs": [
        {
          "indexed": true,
          "internalType": "uint256",
          "name": "tokenId",
          "type": "uint256"
        },
        {
          "indexed": true,
          "internalType": "bytes32",
          "name": "ulpinHash",
          "type": "bytes32"
        },
        {
          "indexed": true,
          "internalType": "address",
          "name": "owner",
          "type": "address"
        }
      ],
      "name": "LandRegistered",
      "type": "event"
    },
    {
      "anonymous": false,
      "inputs": [
        {
          "indexed": true,
          "internalType": "uint256",
          "name": "tokenId",
          "type": "uint256"
        },
        {
          "indexed": true,
          "internalType": "address",
          "name": "from",
          "type": "address"
        },
        {
          "indexed": true,
          "internalType": "address",
          "name": "to",
          "type": "address"
        }
      ],
      "name": "LandTransferred",
      "type": "event"
    },
    {
      "anonymous": false,
      "inputs": [
        {
          "indexed": false,
          "internalType": "uint256",
          "name": "_tokenId",
          "type": "uint256"
        }
      ],
      "name": "MetadataUpdate",
      "type": "event"
    },
    {
      "anonymous": false,
      "inputs": [
        {
          "indexed": true,
          "internalType": "address",
          "name": "previousOwner",
          "type": "address"
        },
        {
          "indexed": true,
          "internalType": "address",
          "name": "newOwner",
          "type": "address"
        }
      ],
      "name": "OwnershipTransferred",
      "type": "event"
    },
    {
      "anonymous": false,
      "inputs": [
        {
          "indexed": true,
          "internalType": "address",
          "name": "from",
          "type": "address"
        },
        {
          "indexed": true,
          "internalType": "address",
          "name": "to",
          "type": "address"
        },
        {
          "indexed": true,
          "internalType": "uint256",
          "name": "tokenId",
          "type": "uint256"
        }
      ],
      "name": "Transfer",
      "type": "event"
    },
    {
      "inputs": [
        {
          "internalType": "address",
          "name": "to",
          "type": "address"
        },
        {
          "internalType": "uint256",
          "name": "tokenId",
          "type": "uint256"
        }
      ],
      "name": "approve",
      "outputs": [],
      "stateMutability": "nonpayable",
      "type": "function"
    },
    {
      "inputs": [
        {
          "internalType": "address",
          "name": "owner",
          "type": "address"
        }
      ],
      "name": "balanceOf",
      "outputs": [
        {
          "internalType": "uint256",
          "name": "",
          "type": "uint256"
        }
      ],
      "stateMutability": "view",
      "type": "function"
    },
    {
      "inputs": [
        {
          "internalType": "uint256",
          "name": "tokenId",
          "type": "uint256"
        }
      ],
      "name": "getApproved",
      "outputs": [
        {
          "internalType": "address",
          "name": "",
          "type": "address"
        }
      ],
      "stateMutability": "view",
      "type": "function"
    },
    {
      "inputs": [
        {
          "internalType": "uint256",
          "name": "tokenId",
          "type": "uint256"
        }
      ],
      "name": "getLandDetails",
      "outputs": [
        {
          "components": [
            {
              "internalType": "bytes32",
              "name": "ulpinHash",
              "type": "bytes32"
            },
            {
              "internalType": "string",
              "name": "ipfsDocumentHash",
              "type": "string"
            },
            {
              "internalType": "uint256",
              "name": "area",
              "type": "uint256"
            },
            {
              "internalType": "string",
              "name": "location",
              "type": "string"
            },
            {
              "internalType": "uint256",
              "name": "registrationDate",
              "type": "uint256"
            },
            {
              "internalType": "bool",
              "name": "isActive",
              "type": "bool"
            }
          ],
          "internalType": "struct LandNFT.LandDetails",
          "name": "",
          "type": "tuple"
        }
      ],
      "stateMutability": "view",
      "type": "function"
    },
    {
      "inputs": [
        {
          "internalType": "string",
          "name": "ulpin",
          "type": "string"
        }
      ],
      "name": "getTokenIdByUlpin",
      "outputs": [
        {
          "internalType": "uint256",
          "name": "",
          "type": "uint256"
        }
      ],
      "stateMutability": "view",
      "type": "function"
    },
    {
      "inputs": [],
      "name": "getTotalLands",
      "outputs": [
        {
          "internalType": "uint256",
          "name": "",
          "type": "uint256"
        }
      ],
      "stateMutability": "view",
      "type": "function"
    },
    {
      "inputs": [
        {
          "internalType": "address",
          "name": "owner",
          "type": "address"
        },
        {
          "internalType": "address",
          "name": "operator",
          "type": "address"
        }
      ],
      "name": "isApprovedForAll",
      "outputs": [
        {
          "internalType": "bool",
          "name": "",
          "type": "bool"
        }
      ],
      "stateMutability": "view",
      "type": "function"
    },
    {
      "inputs": [
        {
          "internalType": "string",
          "name": "ulpin",
          "type": "string"
        }
      ],
      "name": "isUlpinRegistered",
      "outputs": [
        {
          "internalType": "bool",
          "name": "",
          "type": "bool"
        }
      ],
      "stateMutability": "view",
      "type": "function"
    },
    {
      "inputs": [
        {
          "internalType": "uint256",
          "name": "",
          "type": "uint256"
        }
      ],
      "name": "landDetails",
      "outputs": [
        {
          "internalType": "bytes32",
          "name": "ulpinHash",
          "type": "bytes32"
        },
        {
          "internalType": "string",
          "name": "ipfsDocumentHash",
          "type": "string"
        },
        {
          "internalType": "uint256",
          "name": "area",
          "type": "uint256"
        },
        {
          "internalType": "string",
          "name": "location",
          "type": "string"
        },
        {
          "internalType": "uint256",
          "name": "registrationDate",
          "type": "uint256"
        },
        {
          "internalType": "bool",
          "name": "isActive",
          "type": "bool"
        }
      ],
      "stateMutability": "view",
      "type": "function"
    },
    {
      "inputs": [],
      "name": "name",
      "outputs": [
        {
          "internalType": "string",
          "name": "",
          "type": "string"
        }
      ],
      "stateMutability": "view",
      "type": "function"
    },
    {
      "inputs": [],
      "name": "owner",
      "outputs": [
        {
          "internalType": "address",
          "name": "",
          "type": "address"
        }
      ],
      "stateMutability": "view",
      "type": "function"
    },
    {
      "inputs": [
        {
          "internalType": "uint256",
          "name": "tokenId",
          "type": "uint256"
        }
      ],
      "name": "ownerOf",
      "outputs": [
        {
          "internalType": "address",
          "name": "",
          "type": "address"
        }
      ],
      "stateMutability": "view",
      "type": "function"
    },
    {
      "inputs": [
        {
          "internalType": "address",
          "name": "to",
          "type": "address"
        },
        {
          "internalType": "string",
          "name": "ulpin",
          "type": "string"
        },
        {
          "internalType": "string",
          "name": "ipfsHash",
          "type": "string"
        },
        {
          "internalType": "uint256",
          "name": "area",
          "type": "uint256"
        },
        {
          "internalType": "string",
          "name": "location",
          "type": "string"
        }
      ],
      "name": "registerLand",
      "outputs": [
        {
          "internalType": "uint256",
          "name": "",
          "type": "uint256"
        }
      ],
      "stateMutability": "nonpayable",
      "type": "function"
    },
    {
      "inputs": [],
      "name": "renounceOwnership",
      "outputs": [],
      "stateMutability": "nonpayable",
      "type": "function"
    },
    {
      "inputs": [
        {
          "internalType": "address",
          "name": "from",
          "type": "address"
        },
        {
          "internalType": "address",
          "name": "to",
          "type": "address"
        },
        {
          "internalType": "uint256",
          "name": "tokenId",
          "type": "uint256"
        }
      ],
      "name": "safeTransferFrom",
      "outputs": [],
      "stateMutability": "nonpayable",
      "type": "function"
    },
    {
      "inputs": [
        {
          "internalType": "address",
          "name": "from",
          "type": "address"
        },
        {
          "internalType": "address",
          "name": "to",
          "type": "address"
        },
        {
          "internalType": "uint256",
          "name": "tokenId",
          "type": "uint256"
        },
        {
          "internalType": "bytes",
          "name": "data",
          "type": "bytes"
        }
      ],
      "name": "safeTransferFrom",
      "outputs": [],
      "stateMutability": "nonpayable",
      "type": "function"
    },
    {
      "inputs": [
        {
          "internalType": "address",
          "name": "operator",
          "type": "address"
        },
        {
          "internalType": "bool",
          "name": "approved",
          "type": "bool"
        }
      ],
      "name": "setApprovalForAll",
      "outputs": [],
      "stateMutability": "nonpayable",
      "type": "function"
    },
    {
      "inputs": [
        {
          "internalType": "bytes4",
          "name": "interfaceId",
          "type": "bytes4"
        }
      ],
      "name": "supportsInterface",
      "outputs": [
        {
          "internalType": "bool",
          "name": "",
          "type": "bool"
        }
      ],
      "stateMutability": "view",
      "type": "function"
    },
    {
      "inputs": [],
      "name": "symbol",
      "outputs": [
        {
          "internalType": "string",
          "name": "",
          "type": "string"
        }
      ],
      "stateMutability": "view",
      "type": "function"
    },
    {
      "inputs": [
        {
          "internalType": "uint256",
          "name": "",
          "type": "uint256"
        }
      ],
      "name": "tokenIdToUlpin",
      "outputs": [
        {
          "internalType": "bytes32",
          "name": "",
          "type": "bytes32"
        }
      ],
      "stateMutability": "view",
      "type": "function"
    },
    {
      "inputs": [
        {
          "internalType": "uint256",
          "name": "tokenId",
          "type": "uint256"
        }
      ],
      "name": "tokenURI",
      "outputs": [
        {
          "internalType": "string",
          "name": "",
          "type": "string"
        }
      ],
      "stateMutability": "view",
      "type": "function"
    },
    {
      "inputs": [
        {
          "internalType": "address",
          "name": "from",
          "type": "address"
        },
        {
          "internalType": "address",
          "name": "to",
          "type": "address"
        },
        {
          "internalType": "uint256",
          "name": "tokenId",
          "type": "uint256"
        }
      ],
      "name": "transferFrom",
      "outputs": [],
      "stateMutability": "nonpayable",
      "type": "function"
    },
    {
      "inputs": [
        {
          "internalType": "address",
          "name": "newOwner",
          "type": "address"
        }
      ],
      "name": "transferOwnership",
      "outputs": [],
      "stateMutability": "nonpayable",
      "type": "function"
    },
    {
      "inputs": [
        {
          "internalType": "bytes32",
          "name": "",
          "type": "bytes32"
        }
      ],
      "name": "ulpinToTokenId",
      "outputs": [
        {
          "internalType": "uint256",
          "name": "",
          "type": "uint256"
        }
      ],
      "stateMutability": "view",
      "type": "function"
    }
  ],
  "bytecode": "0x60806040523480156200001157600080fd5b50336040518060400160405280601381526020017f5061747461436861696e204c616e64204e465400000000000000000000000000815250604051806040016040528060048152602001631310539160e21b8152508160009081620000779190620001c1565b506001620000868282620001c1565b5050506001600160a01b038116620000b857604051631e4fbdf760e01b81526000600482015260240160405180910390fd5b620000c381620000ca565b506200028d565b600780546001600160a01b038381166001600160a01b0319831681179093556040519116919082907f8be0079c531659141344cd1fd0a4f28419497f9722a3daafe3b4186f6b6457e090600090a35050565b634e487b7160e01b600052604160045260246000fd5b600181811c908216806200014757607f821691505b6020821081036200016857634e487b7160e01b600052602260045260246000fd5b50919050565b601f821115620001bc57600081815260208120601f850160051c81016020861015620001975750805b601f850160051c820191505b81811015620001b857828155600101620001a3565b5050505b505050565b81516001600160401b03811115620001dd57620001dd6200011c565b620001f581620001ee845462000132565b846200016e565b602080601f8311600181146200022d5760008415620002145750858301515b600019600386901b1c1916600185901b178555620001b8565b600085815260208120601f198616915b828110156200025e578886015182559484019460019091019084016200023d565b50858210156200027d5787850151600019600388901b60f8161c191681555b5050505050600190811b01905550565b611cdb806200029d6000396000f3fe608060405234801561001057600080fd5b50600436106101585760003560e01c8063842e7dba116100c3578063e0c48dc91161007c578063e0c48dc9146102ee578063e8dde4e514610301578063e985e9c514610321578063f2f816ad14610334578063f2fde38b14610347578063fe0cb7dc1461035a57600080fd5b8063842e7dba146102945780638da5cb5b1461029c57806395d89b41146102ad578063a22cb465146102b5578063b88d4fde146102c8578063c87b56dd146102db57600080fd5b80631356a37f116101155780631356a37f1461022d57806323b872dd1461024057806342842e0e146102535780636352211e1461026657806370a0823114610279578063715018a61461028c57600080fd5b806301ffc9a71461015d57806306fdde031461018557806307f4d25c1461019a578063081812fc146101bf578063095ea7b3146101ea578063108b7eef146101ff575b600080fd5b61017061016b366004611638565b61037a565b60405190151581526020015b60405180910390f35b61018d61038b565b60405161017c91906116a5565b6101ad6101a83660046116b8565b61041d565b60405161017c969594939291906116d1565b6101d26101cd3660046116b8565b610566565b6040516001600160a01b03909116815260200161017c565b6101fd6101f8366004611739565b61058f565b005b61021f61020d3660046116b8565b600a6020526000908152604090205481565b60405190815260200161017c565b61017061023b36600461180f565b61059e565b6101fd61024e366004611844565b6105e0565b6101fd610261366004611844565b610670565b6101d26102743660046116b8565b610690565b61021f610287366004611880565b61069b565b6101fd6106e3565b60085461021f565b6007546001600160a01b03166101d2565b61018d6106f7565b6101fd6102c336600461189b565b610706565b6101fd6102d63660046118d7565b610711565b61018d6102e93660046116b8565b610729565b61021f6102fc366004611953565b610734565b61021f61030f3660046116b8565b60096020526000908152604090205481565b61017061032f3660046119f6565b6108e8565b61021f61034236600461180f565b610916565b6101fd610355366004611880565b6109a1565b61036d6103683660046116b8565b6109df565b60405161017c9190611a29565b600061038582610beb565b92915050565b60606000805461039a90611a99565b80601f01602080910402602001604051908101604052809291908181526020018280546103c690611a99565b80156104135780601f106103e857610100808354040283529160200191610413565b820191906000526020600020905b8154815290600101906020018083116103f657829003601f168201915b5050505050905090565b600b602052600090815260409020805460018201805491929161043f90611a99565b80601f016020809104026020016040519081016040528092919081815260200182805461046b90611a99565b80156104b85780601f1061048d576101008083540402835291602001916104b8565b820191906000526020600020905b81548152906001019060200180831161049b57829003601f168201915b5050505050908060020154908060030180546104d390611a99565b80601f01602080910402602001604051908101604052809291908181526020018280546104ff90611a99565b801561054c5780601f106105215761010080835404028352916020019161054c565b820191906000526020600020905b81548152906001019060200180831161052f57829003601f168201915b50505050600483015460059093015491929160ff16905086565b600061057182610c10565b506000828152600460205260409020546001600160a01b0316610385565b61059a828233610c49565b5050565b600080826040516020016105b29190611ad3565b60408051601f1981840301815291815281516020928301206000908152600990925290205415159392505050565b6001600160a01b03821661060f57604051633250574960e11b8152600060048201526024015b60405180910390fd5b600061061c838333610c56565b9050836001600160a01b0316816001600160a01b03161461066a576040516364283d7b60e01b81526001600160a01b0380861660048301526024820184905282166044820152606401610606565b50505050565b61068b83838360405180602001604052806000815250610711565b505050565b600061038582610c10565b60006001600160a01b0382166106c7576040516322718ad960e21b815260006004820152602401610606565b506001600160a01b031660009081526003602052604090205490565b6106eb610cec565b6106f56000610d19565b565b60606001805461039a90611a99565b61059a338383610d6b565b61071c8484846105e0565b61066a3385858585610e0a565b606061038582610f35565b600061073e610cec565b6000856040516020016107519190611ad3565b60408051601f19818403018152918152815160209283012060008181526009909352912054909150156107c65760405162461bcd60e51b815260206004820152601860248201527f554c50494e20616c7265616479207265676973746572656400000000000000006044820152606401610606565b600880549060006107d683611aef565b90915550506008546107e88882611046565b6107f28187611060565b6000828152600960209081526040808320849055838352600a8252808320859055805160c0810182528581528083018a81528183018a905260608201899052426080830152600160a08301819052868652600b9094529190932083518155905190918201906108619082611b5c565b5060408201516002820155606082015160038201906108809082611b5c565b506080820151600482015560a0909101516005909101805460ff19169115159190911790556040516001600160a01b03891690839083907f3ac3aea20b38f419ccb7ec67b0b486b6f85d4f8ff34605aae85d69b3bd1ecb4490600090a4979650505050505050565b6001600160a01b03918216600090815260056020908152604080832093909416825291909152205460ff1690565b6000808260405160200161092a9190611ad3565b60408051601f19818403018152918152815160209283012060008181526009909352908220549092509081900361099a5760405162461bcd60e51b81526020600482015260146024820152731553141253881b9bdd081c9959da5cdd195c995960621b6044820152606401610606565b9392505050565b6109a9610cec565b6001600160a01b0381166109d357604051631e4fbdf760e01b815260006004820152602401610606565b6109dc81610d19565b50565b610a1d6040518060c0016040528060008019168152602001606081526020016000815260200160608152602001600081526020016000151581525090565b6000610a2883610690565b6001600160a01b031603610a755760405162461bcd60e51b8152602060048201526014602482015273151bdad95b88191bd95cc81b9bdd08195e1a5cdd60621b6044820152606401610606565b600b60008381526020019081526020016000206040518060c001604052908160008201548152602001600182018054610aad90611a99565b80601f0160208091040260200160405190810160405280929190818152602001828054610ad990611a99565b8015610b265780601f10610afb57610100808354040283529160200191610b26565b820191906000526020600020905b815481529060010190602001808311610b0957829003601f168201915b5050505050815260200160028201548152602001600382018054610b4990611a99565b80601f0160208091040260200160405190810160405280929190818152602001828054610b7590611a99565b8015610bc25780601f10610b9757610100808354040283529160200191610bc2565b820191906000526020600020905b815481529060010190602001808311610ba557829003601f168201915b50505091835250506004820154602082015260059091015460ff16151560409091015292915050565b60006001600160e01b03198216632483248360e11b14806103855750610385826110b0565b6000818152600260205260408120546001600160a01b03168061038557604051637e27328960e01b815260048101849052602401610606565b61068b8383836001611100565b6000828152600260205260408120546001600160a01b031681610c7a868686611206565b90506001600160a01b03821615801590610c9c57506001600160a01b03861615155b15610ce357856001600160a01b0316826001600160a01b0316867f1080b2f211753e5090f26ef7ffdc6bb3e66a125c7290200d10b502160bb1f56660405160405180910390a45b95945050505050565b6007546001600160a01b031633146106f55760405163118cdaa760e01b8152336004820152602401610606565b600780546001600160a01b038381166001600160a01b0319831681179093556040519116919082907f8be0079c531659141344cd1fd0a4f28419497f9722a3daafe3b4186f6b6457e090600090a35050565b6001600160a01b038216610d9d57604051630b61174360e31b81526001600160a01b0383166004820152602401610606565b6001600160a01b03838116600081815260056020908152604080832094871680845294825291829020805460ff191686151590811790915591519182527f17307eab39ab6107e8899845ad3d59bd9653f200f220920489ca2b5937696c31910160405180910390a3505050565b6001600160a01b0383163b15610f2e57604051630a85bd0160e11b81526001600160a01b0384169063150b7a0290610e4c908890889087908790600401611c1c565b6020604051808303816000875af1925050508015610e87575060408051601f3d908101601f19168201909252610e8491810190611c59565b60015b610ef0573d808015610eb5576040519150601f19603f3d011682016040523d82523d6000602084013e610eba565b606091505b508051600003610ee857604051633250574960e11b81526001600160a01b0385166004820152602401610606565b805160208201fd5b6001600160e01b03198116630a85bd0160e11b14610f2c57604051633250574960e11b81526001600160a01b0385166004820152602401610606565b505b5050505050565b6060610f4082610c10565b5060008281526006602052604081208054610f5a90611a99565b80601f0160208091040260200160405190810160405280929190818152602001828054610f8690611a99565b8015610fd35780601f10610fa857610100808354040283529160200191610fd3565b820191906000526020600020905b815481529060010190602001808311610fb657829003601f168201915b505050505090506000610ff160408051602081019091526000815290565b90508051600003611003575092915050565b81511561103557808260405160200161101d929190611c76565b60405160208183030381529060405292505050919050565b61103e846112ff565b949350505050565b61059a828260405180602001604052806000815250611373565b60008281526006602052604090206110788282611b5c565b506040518281527ff8e1a15aba9398e019f0b49df1a4fde98ee17ae345cb5f6b5e2c27f5033e8ce79060200160405180910390a15050565b60006001600160e01b031982166380ac58cd60e01b14806110e157506001600160e01b03198216635b5e139f60e01b145b8061038557506301ffc9a760e01b6001600160e01b0319831614610385565b808061111457506001600160a01b03821615155b156111d657600061112484610c10565b90506001600160a01b038316158015906111505750826001600160a01b0316816001600160a01b031614155b8015611163575061116181846108e8565b155b1561118c5760405163a9fbf51f60e01b81526001600160a01b0384166004820152602401610606565b81156111d45783856001600160a01b0316826001600160a01b03167f8c5be1e5ebec7d5bd14f71427d1e84f3dd0314c0f7b2291e5b200ac8c7c3b92560405160405180910390a45b505b5050600090815260046020526040902080546001600160a01b0319166001600160a01b0392909216919091179055565b6000828152600260205260408120546001600160a01b03908116908316156112335761123381848661138b565b6001600160a01b0381161561127157611250600085600080611100565b6001600160a01b038116600090815260036020526040902080546000190190555b6001600160a01b038516156112a0576001600160a01b0385166000908152600360205260409020805460010190555b60008481526002602052604080822080546001600160a01b0319166001600160a01b0389811691821790925591518793918516917fddf252ad1be2c89b69c2b068fc378daa952ba7f163c4a11628f55a4df523b3ef91a4949350505050565b606061130a82610c10565b50600061132260408051602081019091526000815290565b90506000815111611342576040518060200160405280600081525061099a565b8061134c846113ef565b60405160200161135d929190611c76565b6040516020818303038152906040529392505050565b61137d8383611482565b61068b336000858585610e0a565b6113968383836114e7565b61068b576001600160a01b0383166113c457604051637e27328960e01b815260048101829052602401610606565b60405163177e802f60e01b81526001600160a01b038316600482015260248101829052604401610606565b606060006113fc8361154a565b600101905060008167ffffffffffffffff81111561141c5761141c611763565b6040519080825280601f01601f191660200182016040528015611446576020820181803683370190505b5090508181016020015b600019016f181899199a1a9b1b9c1cb0b131b232b360811b600a86061a8153600a850494508461145057509392505050565b6001600160a01b0382166114ac57604051633250574960e11b815260006004820152602401610606565b60006114ba83836000610c56565b90506001600160a01b0381161561068b576040516339e3563760e11b815260006004820152602401610606565b60006001600160a01b0383161580159061103e5750826001600160a01b0316846001600160a01b03161480611521575061152184846108e8565b8061103e5750506000908152600460205260409020546001600160a01b03908116911614919050565b60008072184f03e93ff9f4daa797ed6e38ed64bf6a1f0160401b83106115895772184f03e93ff9f4daa797ed6e38ed64bf6a1f0160401b830492506040015b6d04ee2d6d415b85acef810000000083106115b5576d04ee2d6d415b85acef8100000000830492506020015b662386f26fc1000083106115d357662386f26fc10000830492506010015b6305f5e10083106115eb576305f5e100830492506008015b61271083106115ff57612710830492506004015b60648310611611576064830492506002015b600a83106103855760010192915050565b6001600160e01b0319811681146109dc57600080fd5b60006020828403121561164a57600080fd5b813561099a81611622565b60005b83811015611670578181015183820152602001611658565b50506000910152565b60008151808452611691816020860160208601611655565b601f01601f19169290920160200192915050565b60208152600061099a6020830184611679565b6000602082840312156116ca57600080fd5b5035919050565b86815260c0602082015260006116ea60c0830188611679565b86604084015282810360608401526117028187611679565b6080840195909552505090151560a090910152949350505050565b80356001600160a01b038116811461173457600080fd5b919050565b6000806040838503121561174c57600080fd5b6117558361171d565b946020939093013593505050565b634e487b7160e01b600052604160045260246000fd5b600067ffffffffffffffff8084111561179457611794611763565b604051601f8501601f19908116603f011681019082821181831017156117bc576117bc611763565b816040528093508581528686860111156117d557600080fd5b858560208301376000602087830101525050509392505050565b600082601f83011261180057600080fd5b61099a83833560208501611779565b60006020828403121561182157600080fd5b813567ffffffffffffffff81111561183857600080fd5b61103e848285016117ef565b60008060006060848603121561185957600080fd5b6118628461171d565b92506118706020850161171d565b9150604084013590509250925092565b60006020828403121561189257600080fd5b61099a8261171d565b600080604083850312156118ae57600080fd5b6118b78361171d565b9150602083013580151581146118cc57600080fd5b809150509250929050565b600080600080608085870312156118ed57600080fd5b6118f68561171d565b93506119046020860161171d565b925060408501359150606085013567ffffffffffffffff81111561192757600080fd5b8501601f8101871361193857600080fd5b61194787823560208401611779565b91505092959194509250565b600080600080600060a0868803121561196b57600080fd5b6119748661171d565b9450602086013567ffffffffffffffff8082111561199157600080fd5b61199d89838a016117ef565b955060408801359150808211156119b357600080fd5b6119bf89838a016117ef565b94506060880135935060808801359150808211156119dc57600080fd5b506119e9888289016117ef565b9150509295509295909350565b60008060408385031215611a0957600080fd5b611a128361171d565b9150611a206020840161171d565b90509250929050565b60208152815160208201526000602083015160c06040840152611a4f60e0840182611679565b9050604084015160608401526060840151601f19848303016080850152611a768282611679565b915050608084015160a084015260a0840151151560c08401528091505092915050565b600181811c90821680611aad57607f821691505b602082108103611acd57634e487b7160e01b600052602260045260246000fd5b50919050565b60008251611ae5818460208701611655565b9190910192915050565b600060018201611b0f57634e487b7160e01b600052601160045260246000fd5b5060010190565b601f82111561068b57600081815260208120601f850160051c81016020861015611b3d5750805b601f850160051c820191505b81811015610f2c57828155600101611b49565b815167ffffffffffffffff811115611b7657611b76611763565b611b8a81611b848454611a99565b84611b16565b602080601f831160018114611bbf5760008415611ba75750858301515b600019600386901b1c1916600185901b178555610f2c565b600085815260208120601f198616915b82811015611bee57888601518255948401946001909101908401611bcf565b5085821015611c0c5787850151600019600388901b60f8161c191681555b5050505050600190811b01905550565b6001600160a01b0385811682528416602082015260408101839052608060608201819052600090611c4f90830184611679565b9695505050505050565b600060208284031215611c6b57600080fd5b815161099a81611622565b60008351611c88818460208801611655565b835190830190611c9c818360208801611655565b0194935050505056fea26469706673582212207e04f016638ce0470f22255444f2edeba255b0a4d8bcb47ea443514c1965d52864736f6c63430008140033",
  "linkReferences": {},
  "deployedLinkReferences": {}
}