{
  "_format": "hh-sol-artifact-1",
  "contractName": "TaxEscrow",
  "sourceName": "contracts/TaxEscrow.sol",
  "abi": [
    {
      "inputs": [
        {
          "internalType": "address",
          "name": "_landNFTAddress",
          "type": "address"
        },
        {
          "internalType": "address",
          "name": "_registrar",
          "type": "address"
        }
      ],
      "stateMutability": "nonpayable",
      "type": "constructor"
    },
    {
      "inputs": [
        {
          "internalType": "address",
          "name": "owner",
          "type": "address"
        }
      ],
      "name": "OwnableInvalidOwner",
      "type": "error"
    },
    {
      "inputs": [
        {
          "internalType": "address",
          "name": "account",
          "type": "address"
        }
      ],
      "name": "OwnableUnauthorizedAccount",
      "type": "error"
    },
    {
      "anonymous": false,
      "inputs": [
        {
          "indexed": true,
          "internalType": "uint256",
          "name": "requestId",
          "type": "uint256"
        },
        {
          "indexed": true,
          "internalType": "address",
          "name": "approver",
          "type": "address"
        },
        {
          "indexed": false,
          "internalType": "string",
          "name": "role",
          "type": "string"
        }
      ],
      "name": "ApprovalGiven",
      "type": "event"
    },
    {
      "anonymous": false,
      "inputs": [
        {
          "indexed": false,
          "internalType": "string",
          "name": "location",
          "type": "string"
        },
        {
          "indexed": false,
          "internalType": "uint256",
          "name": "rate",
          "type": "uint256"
        }
      ],
      "name": "CircleRateUpdated",
      "type": "event"
    },
    {
      "anonymous": false,
      "inputs": [
        {
          "indexed": true,
          "internalType": "address",
          "name": "previousOwner",
          "type": "address"
        },
        {
          "indexed": true,
          "internalType": "address",
          "name": "newOwner",
          "type": "address"
        }
      ],
      "name": "OwnershipTransferred",
      "type": "event"
    },
    {
      "anonymous": false,
      "inputs": [
        {
          "indexed": true,
          "internalType": "uint256",
          "name": "requestId",
          "type": "uint256"
        },
        {
          "indexed": false,
          "internalType": "uint256",
          "name": "amount",
          "type": "uint256"
        }
      ],
      "name": "TaxPaid",
      "type": "event"
    },
    {
      "anonymous": false,
      "inputs": [
        {
          "indexed": true,
          "internalType": "uint256",
          "name": "requestId",
          "type": "uint256"
        }
      ],
      "name": "TransferCancelled",
      "type": "event"
    },
    {
      "anonymous": false,
      "inputs": [
        {
          "indexed": true,
          "internalType": "uint256",
          "name": "requestId",
          "type": "uint256"
        },
        {
          "indexed": true,
          "internalType": "uint256",
          "name": "tokenId",
          "type": "uint256"
        },
        {
          "indexed": false,
          "internalType": "address",
          "name": "from",
          "type": "address"
        },
        {
          "indexed": false,
          "internalType": "address",
          "name": "to",
          "type": "address"
        }
      ],
      "name": "TransferCompleted",
      "type": "event"
    },
    {
      "anonymous": false,
      "inputs": [
        {
          "indexed": true,
          "internalType": "uint256",
          "name": "requestId",
          "type": "uint256"
        },
        {
          "indexed": true,
          "internalType": "uint256",
          "name": "tokenId",
          "type": "uint256"
        },
        {
          "indexed": false,
          "internalType": "address",
          "name": "seller",
          "type": "address"
        },
        {
          "indexed": false,
          "internalType": "address",
          "name": "buyer",
          "type": "address"
        },
        {
          "indexed": false,
          "internalType": "uint256",
          "name": "salePrice",
          "type": "uint256"
        }
      ],
      "name": "TransferRequested",
      "type": "event"
    },
    {
      "inputs": [],
      "name": "BASIS_POINTS",
      "outputs": [
        {
          "internalType": "uint256",
          "name": "",
          "type": "uint256"
        }
      ],
      "stateMutability": "view",
      "type": "function"
    },
    {
      "inputs": [
        {
          "internalType": "uint256",
          "name": "requestId",
          "type": "uint256"
        }
      ],
      "name": "buyerApprove",
      "outputs": [],
      "stateMutability": "nonpayable",
      "type": "function"
    },
    {
      "inputs": [
        {
          "internalType": "uint256",
          "name": "tokenId",
          "type": "uint256"
        }
      ],
      "name": "calculateMinimumPrice",
      "outputs": [
        {
          "internalType": "uint256",
          "name": "",
          "type": "uint256"
        }
      ],
      "stateMutability": "view",
      "type": "function"
    },
    {
      "inputs": [
        {
          "internalType": "uint256",
          "name": "salePrice",
          "type": "uint256"
        }
      ],
      "name": "calculateTax",
      "outputs": [
        {
          "internalType": "uint256",
          "name": "",
          "type": "uint256"
        }
      ],
      "stateMutability": "view",
      "type": "function"
    },
    {
      "inputs": [
        {
          "internalType": "uint256",
          "name": "requestId",
          "type": "uint256"
        }
      ],
      "name": "cancelTransfer",
      "outputs": [],
      "stateMutability": "nonpayable",
      "type": "function"
    },
    {
      "inputs": [
        {
          "internalType": "string",
          "name": "",
          "type": "string"
        }
      ],
      "name": "circleRates",
      "outputs": [
        {
          "internalType": "uint256",
          "name": "",
          "type": "uint256"
        }
      ],
      "stateMutability": "view",
      "type": "function"
    },
    {
      "inputs": [
        {
          "internalType": "uint256",
          "name": "requestId",
          "type": "uint256"
        }
      ],
      "name": "getApprovalStatus",
      "outputs": [
        {
          "internalType": "bool",
          "name": "sellerApproved",
          "type": "bool"
        },
        {
          "internalType": "bool",
          "name": "buyerApproved",
          "type": "bool"
        },
        {
          "internalType": "bool",
          "name": "registrarApproved",
          "type": "bool"
        },
        {
          "internalType": "bool",
          "name": "isCompleted",
          "type": "bool"
        }
      ],
      "stateMutability": "view",
      "type": "function"
    },
    {
      "inputs": [
        {
          "internalType": "uint256",
          "name": "requestId",
          "type": "uint256"
        }
      ],
      "name": "getTransferRequest",
      "outputs": [
        {
          "components": [
            {
              "internalType": "uint256",
              "name": "tokenId",
              "type": "uint256"
            },
            {
              "internalType": "address",
              "name": "seller",
              "type": "address"
            },
            {
              "internalType": "address",
              "name": "buyer",
              "type": "address"
            },
            {
              "internalType": "uint256",
              "name": "salePrice",
              "type": "uint256"
            },
            {
              "internalType": "uint256",
              "name": "taxAmount",
              "type": "uint256"
            },
            {
              "internalType": "uint256",
              "name": "circleRate",
              "type": "uint256"
            },
            {
              "internalType": "bool",
              "name": "sellerApproved",
              "type": "bool"
            },
            {
              "internalType": "bool",
              "name": "buyerApproved",
              "type": "bool"
            },
            {
              "internalType": "bool",
              "name": "registrarApproved",
              "type": "bool"
            },
            {
              "internalType": "bool",
              "name": "isCompleted",
              "type": "bool"
            },
            {
              "internalType": "bool",
              "name": "isCancelled",
              "type": "bool"
            },
            {
              "internalType": "uint256",
              "name": "createdAt",
              "type": "uint256"
            }
          ],
          "internalType": "struct TaxEscrow.TransferRequest",
          "name": "",
          "type": "tuple"
        }
      ],
      "stateMutability": "view",
      "type": "function"
    },
    {
      "inputs": [
        {
          "internalType": "uint256",
          "name": "tokenId",
          "type": "uint256"
        },
        {
          "internalType": "address",
          "name": "buyer",
          "type": "address"
        },
        {
          "internalType": "uint256",
          "name": "salePrice",
          "type": "uint256"
        }
      ],
      "name": "initiateTransfer",
      "outputs": [
        {
          "internalType": "uint256",
          "name": "",
          "type": "uint256"
        }
      ],
      "stateMutability": "payable",
      "type": "function"
    },
    {
      "inputs": [],
      "name": "landNFT",
      "outputs": [
        {
          "internalType": "contract LandNFT",
          "name": "",
          "type": "address"
        }
      ],
      "stateMutability": "view",
      "type": "function"
    },
    {
      "inputs": [],
      "name": "owner",
      "outputs": [
        {
          "internalType": "address",
          "name": "",
          "type": "address"
        }
      ],
      "stateMutability": "view",
      "type": "function"
    },
    {
      "inputs": [],
      "name": "registrar",
      "outputs": [
        {
          "internalType": "address",
          "name": "",
          "type": "address"
        }
      ],
      "stateMutability": "view",
      "type": "function"
    },
    {
      "inputs": [
        {
          "internalType": "uint256",
          "name": "requestId",
          "type": "uint256"
        }
      ],
      "name": "registrarApprove",
      "outputs": [],
      "stateMutability": "nonpayable",
      "type": "function"
    },
    {
      "inputs": [],
      "name": "renounceOwnership",
      "outputs": [],
      "stateMutability": "nonpayable",
      "type": "function"
    },
    {
      "inputs": [],
      "name": "taxPercentage",
      "outputs": [
        {
          "internalType": "uint256",
          "name": "",
          "type": "uint256"
        }
      ],
      "stateMutability": "view",
      "type": "function"
    },
    {
      "inputs": [
        {
          "internalType": "address",
          "name": "newOwner",
          "type": "address"
        }
      ],
      "name": "transferOwnership",
      "outputs": [],
      "stateMutability": "nonpayable",
      "type": "function"
    },
    {
      "inputs": [],
      "name": "transferRequestCounter",
      "outputs": [
        {
          "internalType": "uint256",
          "name": "",
          "type": "uint256"
        }
      ],
      "stateMutability": "view",
      "type": "function"
    },
    {
      "inputs": [
        {
          "internalType": "uint256",
          "name": "",
          "type": "uint256"
        }
      ],
      "name": "transferRequests",
      "outputs": [
        {
          "internalType": "uint256",
          "name": "tokenId",
          "type": "uint256"
        },
        {
          "internalType": "address",
          "name": "seller",
          "type": "address"
        },
        {
          "internalType": "address",
          "name": "buyer",
          "type": "address"
        },
        {
          "internalType": "uint256",
          "name": "salePrice",
          "type": "uint256"
        },
        {
          "internalType": "uint256",
          "name": "taxAmount",
          "type": "uint256"
        },
        {
          "internalType": "uint256",
          "name": "circleRate",
          "type": "uint256"
        },
        {
          "internalType": "bool",
          "name": "sellerApproved",
          "type": "bool"
        },
        {
          "internalType": "bool",
          "name": "buyerApproved",
          "type": "bool"
        },
        {
          "internalType": "bool",
          "name": "registrarApproved",
          "type": "bool"
        },
        {
          "internalType": "bool",
          "name": "isCompleted",
          "type": "bool"
        },
        {
          "internalType": "bool",
          "name": "isCancelled",
          "type": "bool"
        },
        {
          "internalType": "uint256",
          "name": "createdAt",
          "type": "uint256"
        }
      ],
      "stateMutability": "view",
      "type": "function"
    },
    {
      "inputs": [
        {
          "internalType": "string",
          "name": "location",
          "type": "string"
        },
        {
          "internalType": "uint256",
          "name": "ratePerSqm",
          "type": "uint256"
        }
      ],
      "name": "updateCircleRate",
      "outputs": [],
      "stateMutability": "nonpayable",
      "type": "function"
    },
    {
      "inputs": [
        {
          "internalType": "address",
          "name": "_registrar",
          "type": "address"
        }
      ],
      "name": "updateRegistrar",
      "outputs": [],
      "stateMutability": "nonpayable",
      "type": "function"
    },
    {
      "inputs": [
        {
          "internalType": "uint256",
          "name": "_taxPercentage",
          "type": "uint256"
        }
      ],
      "name": "updateTaxPercentage",
      "outputs": [],
      "stateMutability": "nonpayable",
      "type": "function"
    },
    {
      "inputs": [],
      "name": "withdrawTaxes",
      "outputs": [],
      "stateMutability": "nonpayable",
      "type": "function"
    }
  ],
  "bytecode": "0x60806040526102bc6006553480156200001757600080fd5b5060405162001b3f38038062001b3f8339810160408190526200003a916200010c565b33806200006157604051631e4fbdf760e01b81526000600482015260240160405180910390fd5b6200006c816200009f565b50600180546001600160a01b039384166001600160a01b0319918216179091556005805492909316911617905562000144565b600080546001600160a01b038381166001600160a01b0319831681178455604051919092169283917f8be0079c531659141344cd1fd0a4f28419497f9722a3daafe3b4186f6b6457e09190a35050565b80516001600160a01b03811681146200010757600080fd5b919050565b600080604083850312156200012057600080fd5b6200012b83620000ef565b91506200013b60208401620000ef565b90509250929050565b6119eb80620001546000396000f3fe6080604052600436106101355760003560e01c8063715018a6116100ab578063a49141a81161006f578063a49141a814610548578063ae7b6d1614610568578063cf16fd0b1461057e578063d92fd60914610696578063e1f1c4a7146106ce578063f2fde38b146106e457600080fd5b8063715018a61461038a57806374569c911461039f5780638839b8aa146103bf5780638da5cb5b146103df57806399807e4c146103fd57600080fd5b806340f50adb116100fd57806340f50adb146102de57806346829831146102ff578063483a9310146103145780635842f44314610334578063592b700a1461034a57806359caecb51461036a57600080fd5b806303486c401461013a57806316393ae5146102445780632b20e3971461026657806339d022e11461029e5780633f131c6a146102be575b600080fd5b34801561014657600080fd5b506101d06101553660046114b3565b60036020819052600091825260409091208054600182015460028301549383015460048401546005850154600686015460079096015494966001600160a01b039485169694169492939192909160ff80821692610100830482169262010000810483169263010000008204811692600160201b90920416908c565b604080519c8d526001600160a01b039b8c1660208e015299909a16988b019890985260608a0196909652608089019490945260a0880192909252151560c0870152151560e0860152151561010085015215156101208401521515610140830152610160820152610180015b60405180910390f35b34801561025057600080fd5b5061026461025f3660046114b3565b610704565b005b34801561027257600080fd5b50600554610286906001600160a01b031681565b6040516001600160a01b03909116815260200161023b565b3480156102aa57600080fd5b50600154610286906001600160a01b031681565b3480156102ca57600080fd5b506102646102d93660046114b3565b6108ac565b6102f16102ec3660046114e1565b610903565b60405190815260200161023b565b34801561030b57600080fd5b50610264610d71565b34801561032057600080fd5b506102f161032f3660046114b3565b610db6565b34801561034057600080fd5b506102f160045481565b34801561035657600080fd5b50610264610365366004611519565b610dd9565b34801561037657600080fd5b506102646103853660046114b3565b610e03565b34801561039657600080fd5b50610264610f68565b3480156103ab57600080fd5b506102646103ba3660046114b3565b610f7c565b3480156103cb57600080fd5b506102f16103da3660046114b3565b6110fd565b3480156103eb57600080fd5b506000546001600160a01b0316610286565b34801561040957600080fd5b5061053b6104183660046114b3565b6040805161018081018252600080825260208201819052918101829052606081018290526080810182905260a0810182905260c0810182905260e08101829052610100810182905261012081018290526101408101829052610160810191909152506000908152600360208181526040928390208351610180810185528154815260018201546001600160a01b039081169382019390935260028201549092169382019390935290820154606082015260048201546080820152600582015460a0820152600682015460ff808216151560c08401526101008083048216151560e085015262010000830482161515908401526301000000820481161515610120840152600160201b90910416151561014082015260079091015461016082015290565b60405161023b919061153d565b34801561055457600080fd5b506102646105633660046116ea565b611212565b34801561057457600080fd5b506102f160065481565b34801561058a57600080fd5b5061066c6105993660046114b3565b6000908152600360208181526040928390208351610180810185528154815260018201546001600160a01b039081169382019390935260028201549092169382019390935290820154606082015260048201546080820152600582015460a0820152600682015460ff808216151560c084018190526101008084048316151560e086018190526201000085048416151591860182905263010000008504841615156101208701819052600160201b9095049093161515610140860152600790950154610160909401939093529193919291565b6040805194151585529215156020850152901515918301919091521515606082015260800161023b565b3480156106a257600080fd5b506102f16106b136600461172f565b805160208183018101805160028252928201919093012091525481565b3480156106da57600080fd5b506102f161271081565b3480156106f057600080fd5b506102646106ff366004611519565b6112d2565b600081815260036020526040902060068101546301000000900460ff16156107475760405162461bcd60e51b815260040161073e90611764565b60405180910390fd5b6006810154600160201b900460ff16156107985760405162461bcd60e51b8152602060048201526012602482015271151c985b9cd9995c8818d85b98d95b1b195960721b604482015260640161073e565b6005546001600160a01b031633146107e65760405162461bcd60e51b81526020600482015260116024820152702737ba103a3432903932b3b4b9ba3930b960791b604482015260640161073e565b600681015462010000900460ff16156108345760405162461bcd60e51b815260206004820152601060248201526f105b1c9958591e48185c1c1c9bdd995960821b604482015260640161073e565b60068101805462ff0000191662010000179055604051339083907f1da098cda2e6fa8baaa20056510a8f9710462455a291092312a1d28faf42c8b290610897906020808252600990820152682922a3a4a9aa2920a960b91b604082015260600190565b60405180910390a36108a88261130d565b5050565b6108b4611436565b6107d08111156108fe5760405162461bcd60e51b81526020600482015260156024820152745461782063616e6e6f74206578636565642032302560581b604482015260640161073e565b600655565b6001546040516331a9108f60e11b81526004810185905260009133916001600160a01b0390911690636352211e90602401602060405180830381865afa158015610951573d6000803e3d6000fd5b505050506040513d601f19601f82011682018060405250810190610975919061179b565b6001600160a01b0316146109bb5760405162461bcd60e51b815260206004820152600d60248201526c2737ba103a34329037bbb732b960991b604482015260640161073e565b600154604051633f832df760e21b8152600481018690526000916001600160a01b03169063fe0cb7dc90602401600060405180830381865afa158015610a05573d6000803e3d6000fd5b505050506040513d6000823e601f3d908101601f19168201604052610a2d9190810190611836565b90506000610a3a866110fd565b905080841015610a8c5760405162461bcd60e51b815260206004820152601c60248201527f53616c652070726963652062656c6f7720636972636c65207261746500000000604482015260640161073e565b6000610a9785610db6565b905080341015610ae95760405162461bcd60e51b815260206004820152601860248201527f496e73756666696369656e7420746178207061796d656e740000000000000000604482015260640161073e565b60048054906000610af98361190c565b919050555060006004549050604051806101800160405280898152602001336001600160a01b03168152602001886001600160a01b0316815260200187815260200183815260200160028660600151604051610b559190611925565b9081526040805160209281900383019020548352600183830181905260008483018190526060808601829052608080870183905260a08088018490524260c098890152898452600380885293869020895181558988015195810180546001600160a01b03199081166001600160a01b03988916179091558a880151600283018054909216908816179055898401519481019490945590880151600484015587015160058301559486015160068201805460e0890151610100808b01516101208c01516101408d015161ffff1990951696151561ff001916969096179215159091029190911763ffff00001916620100009115159190910263ff0000001916176301000000931515939093029290921764ff000000001916600160201b92151592909202919091179055610160909501516007909501949094558051338152938b16918401919091528201889052899183917f5fb2e4d56c3e24ecd6780a45d26149b6188355d17bd78ce1c14e0daf26c354fd910160405180910390a3336001600160a01b0316817f1da098cda2e6fa8baaa20056510a8f9710462455a291092312a1d28faf42c8b2604051610d249060208082526006908201526529a2a62622a960d11b604082015260600190565b60405180910390a3807f65c3c2ca9c0a91fa382799173e8eaba4f2d15dc17f9d7b3194a673f5311ccdaa34604051610d5e91815260200190565b60405180910390a2979650505050505050565b610d79611436565b600080546040516001600160a01b03909116914780156108fc02929091818181858888f19350505050158015610db3573d6000803e3d6000fd5b50565b600061271060065483610dc99190611941565b610dd39190611958565b92915050565b610de1611436565b600580546001600160a01b0319166001600160a01b0392909216919091179055565b600081815260036020526040902060068101546301000000900460ff1615610e3d5760405162461bcd60e51b815260040161073e90611764565b6006810154600160201b900460ff1615610e8d5760405162461bcd60e51b8152602060048201526011602482015270105b1c9958591e4818d85b98d95b1b1959607a1b604482015260640161073e565b60018101546001600160a01b03163314610ee25760405162461bcd60e51b815260206004820152601660248201527513db9b1e481cd95b1b195c8818d85b8818d85b98d95b60521b604482015260640161073e565b60068101805464ff000000001916600160201b179055600181015460048201546040516001600160a01b039092169181156108fc0291906000818181858888f19350505050158015610f38573d6000803e3d6000fd5b5060405182907f80325e888c1c82b732ed61a3aaa950ae32a233290f74a648d1a333966645034590600090a25050565b610f70611436565b610f7a6000611463565b565b600081815260036020526040902060068101546301000000900460ff1615610fb65760405162461bcd60e51b815260040161073e90611764565b6006810154600160201b900460ff16156110075760405162461bcd60e51b8152602060048201526012602482015271151c985b9cd9995c8818d85b98d95b1b195960721b604482015260640161073e565b60028101546001600160a01b031633146110535760405162461bcd60e51b815260206004820152600d60248201526c2737ba103a343290313abcb2b960991b604482015260640161073e565b6006810154610100900460ff16156110a05760405162461bcd60e51b815260206004820152601060248201526f105b1c9958591e48185c1c1c9bdd995960821b604482015260640161073e565b60068101805461ff001916610100179055604051339083907f1da098cda2e6fa8baaa20056510a8f9710462455a291092312a1d28faf42c8b29061089790602080825260059082015264212aaca2a960d91b604082015260600190565b600154604051633f832df760e21b81526004810183905260009182916001600160a01b039091169063fe0cb7dc90602401600060405180830381865afa15801561114b573d6000803e3d6000fd5b505050506040513d6000823e601f3d908101601f191682016040526111739190810190611836565b905060006002826060015160405161118b9190611925565b9081526020016040518091039020549050600081116111fa5760405162461bcd60e51b815260206004820152602560248201527f436972636c652072617465206e6f742073657420666f722074686973206c6f6360448201526430ba34b7b760d91b606482015260840161073e565b80826040015161120a9190611941565b949350505050565b6000546001600160a01b031633148061123557506005546001600160a01b031633145b6112725760405162461bcd60e51b815260206004820152600e60248201526d139bdd08185d5d1a1bdc9a5e995960921b604482015260640161073e565b806002836040516112839190611925565b9081526020016040518091039020819055507f94c7a7317ace9416a58b2298c0dfb495f9753558d16e400ec1f29229bc0a2da482826040516112c692919061197a565b60405180910390a15050565b6112da611436565b6001600160a01b03811661130457604051631e4fbdf760e01b81526000600482015260240161073e565b610db381611463565b6000818152600360205260409020600681015460ff16801561133857506006810154610100900460ff165b801561134e5750600681015462010000900460ff165b156108a8576001805490820154600283015483546040516323b872dd60e01b81526001600160a01b039384166004820152918316602483015260448201529116906323b872dd90606401600060405180830381600087803b1580156113b257600080fd5b505af11580156113c6573d6000803e3d6000fd5b5050505060068101805463ff00000019166301000000179055805460018201546002830154604080516001600160a01b03938416815292909116602083015284917f471d8af79d41805c670831ee9feadc72da293f634b1e13b912cec15450d1ed5c910160405180910390a35050565b6000546001600160a01b03163314610f7a5760405163118cdaa760e01b815233600482015260240161073e565b600080546001600160a01b038381166001600160a01b0319831681178455604051919092169283917f8be0079c531659141344cd1fd0a4f28419497f9722a3daafe3b4186f6b6457e09190a35050565b6000602082840312156114c557600080fd5b5035919050565b6001600160a01b0381168114610db357600080fd5b6000806000606084860312156114f657600080fd5b833592506020840135611508816114cc565b929592945050506040919091013590565b60006020828403121561152b57600080fd5b8135611536816114cc565b9392505050565b81518152602080830151610180830191611561908401826001600160a01b03169052565b50604083015161157c60408401826001600160a01b03169052565b50606083015160608301526080830151608083015260a083015160a083015260c08301516115ae60c084018215159052565b5060e08301516115c260e084018215159052565b5061010083810151151590830152610120808401511515908301526101408084015115159083015261016092830151929091019190915290565b634e487b7160e01b600052604160045260246000fd5b60405160c0810167ffffffffffffffff81118282101715611635576116356115fc565b60405290565b604051601f8201601f1916810167ffffffffffffffff81118282101715611664576116646115fc565b604052919050565b600067ffffffffffffffff821115611686576116866115fc565b50601f01601f191660200190565b600082601f8301126116a557600080fd5b81356116b86116b38261166c565b61163b565b8181528460208386010111156116cd57600080fd5b816020850160208301376000918101602001919091529392505050565b600080604083850312156116fd57600080fd5b823567ffffffffffffffff81111561171457600080fd5b61172085828601611694565b95602094909401359450505050565b60006020828403121561174157600080fd5b813567ffffffffffffffff81111561175857600080fd5b61120a84828501611694565b6020808252601a908201527f5472616e7366657220616c726561647920636f6d706c65746564000000000000604082015260600190565b6000602082840312156117ad57600080fd5b8151611536816114cc565b60005b838110156117d35781810151838201526020016117bb565b50506000910152565b600082601f8301126117ed57600080fd5b81516117fb6116b38261166c565b81815284602083860101111561181057600080fd5b61120a8260208301602087016117b8565b8051801515811461183157600080fd5b919050565b60006020828403121561184857600080fd5b815167ffffffffffffffff8082111561186057600080fd5b9083019060c0828603121561187457600080fd5b61187c611612565b8251815260208301518281111561189257600080fd5b61189e878286016117dc565b602083015250604083015160408201526060830151828111156118c057600080fd5b6118cc878286016117dc565b606083015250608083015160808201526118e860a08401611821565b60a082015295945050505050565b634e487b7160e01b600052601160045260246000fd5b60006001820161191e5761191e6118f6565b5060010190565b600082516119378184602087016117b8565b9190910192915050565b8082028115828204841417610dd357610dd36118f6565b60008261197557634e487b7160e01b600052601260045260246000fd5b500490565b60408152600083518060408401526119998160608501602088016117b8565b602083019390935250601f91909101601f19160160600191905056fea264697066735822122097dac1d7219c59f389bf1850b4e1cb3b87cf29d8771b1c2ad59005496f6bfe4d64736f6c63430008140033",
  "linkReferences": {},
  "deployedLinkReferences": {}
}